:10000000F8C0000026C1000024C1000022C1000089
:1000100020C100001EC100001CC100001AC1000068
:1000200018C1000016C1000014C1000012C1000078
:1000300010C100000EC100000CC100000AC1000088
:1000400008C1000006C1000004C1000002C1000098
:1000500000C10000FEC00000FCC0000034C500006C
:10006000F8C00000F8C700000C946108F2C000005E
:10007000F0C00000EEC00000ECC00000EAC00000CC
:10008000E8C00000E6C00000E4C00000E2C00000DC
:100090000C94B7080C94ED08DCC00000DAC0000036
:1000A000D8C00000D6C00000D4C00000D2C00000FC
:1000B000D0C00000CEC00000CCC00000CAC000000C
:1000C000C8C00000C6C000007AC200000C944309FA
:1000D0000C947909BEC000000C94CF090C94050A59
:1000E000B8C0000000000A0B02090C0D0E0807033F
:1000F00004010000000000000000000000000000FB
:1001000000000000000000000000000000000000EF
:1001100012111000000000000000000000000000AC
:100120000000000000000000000001021020200874
:100130000810204010204080020102010804020142
:1001400001020408102040808040201008040201B1
:10015000800402018040201008040201080402010A
:100160000102040810204080010204081020408091
:1001700005050505070508080808020202020A0A23
:100180000808040404040101010101010101030341
:10019000030303030303040707070C0C0C0C0C0CEC
:1001A0000C0C0202020206060606060606060B0BE9
:1001B0000B0B0B0B0B0B00002200250028002B0063
:1001C0002E003100340002010000050108010B017E
:1001D00000002100240027002A002D0030003300F9
:1001E00001010000040107010A018A081609A20999
:1001F0002E0A11241FBECFEFD1E2DEBFCDBF00E03B
:100200000CBF12E0A0E0B2E0E8E6F5E100E00BBFD1
:1002100002C007900D92AE31B107D9F724E0AEE1EC
:10022000B2E001C01D92AF3BB207E1F710E0C9EFA9
:10023000D0E000E006C021970109802FFE010E9456
:10024000AA0AC53FD10780E00807A9F71ED20C947F
:10025000B20AD6CE611101C06BC56130E9F362E02C
:10026000FBCF662311F061E09FC560E0FDCFCF9327
:10027000DF93882341F0EB018150D1D499838883A7
:10028000DF91CF910895FB0111821082F9CF0F9376
:100290001F938B019C0183E0369527951795079551
:1002A0008A95D1F7025E1D4F462F477021E030E05E
:1002B000F90102C0EE0FFF1F4A95E2F7AF01F80106
:1002C00020812423CB010196211102C090E080E01F
:1002D0001F910F9108950F931F938B019C0183E051
:1002E00036952795179507958A95D1F7677081E020
:1002F00090E001C0880F6A95EAF7F801E25EFD4FD1
:100300002081452B31F48095822380831F910F91AA
:100310000895822BFACFCF92DF92EF92FF92CF9384
:10032000DF936B017C0160E086E3C816D104E10431
:10033000F10488F486E38C0DFBD4E6012196AE012E
:10034000C701B601C8DFCE01DF91CF91FF90EF90DA
:10035000DF90CF9008958C2DEFCF882341F081500E
:10036000682F70E090E080E050E040E0B4CF089566
:10037000CF92DF92EF92FF926B017C019F7720E09A
:1003800030E040E859E52FD287FF26C020E030E07A
:1003900040E05FE3C701B6012FD387FD0CC020E02A
:1003A00030E040E05FE3C701B601A6D1FF90EF90D7
:1003B000DF90CF9059C220E030E040E05FEBC70112
:1003C000B6011AD318167CF420E030E0A901C70169
:1003D000B60116D36B017C01C701B601FF90EF9007
:1003E000DF90CF90089520E030E040E05FE3C70168
:1003F000B60181D1FF90EF90DF90CF90E1C1CF9215
:10040000DF92EF92FF92CF93DF931F921F92CDB7AF
:10041000DEB7C0900002D0900102E0900202F0909E
:100420000302A70196016091B1047091B20480911A
:10043000B3049091B404D7D1882341F0C092B104A1
:10044000D092B204E092B304F092B40466E370E098
:1004500080E090E01CDF9093B0048093AF0443E011
:1004600050E0BE016F5F7F4F02DF69817A8190E0CB
:1004700080E0BDD12AE038E240EA5BE3C1D278DF18
:10048000209104023091050240910602509107022A
:10049000AAD1881F8827881F61E0682782E0E1DEF3
:1004A0000F900F90DF91CF91FF90EF90DF90CF9062
:1004B0000895CF92DF92EF92FF921F93CF93DF9335
:1004C000C9EAD4E018828091000290910102A091C3
:1004D0000202B091030288879987AA87BB871D8291
:1004E000C12CD12C7601C394C982DA82EB82FC82C2
:1004F00066E370E080E090E00EDF9F838E8311E082
:100500001D831C86CD86DE86EF86F88A61E082E058
:10051000A1DE198BDF91CF911F91FF90EF90DF90BB
:10052000CF9008958091A90481111DC081E080932E
:10053000A9048091AA049091AB04A091AC04B0915D
:10054000AD040197A105B10571F48091AE04882333
:1005500051F066E370E080E090E099DE9093B004A3
:100560008093AF04FADE8091B504811103C081E06D
:100570008093B504089540E855E260E070E090E0B3
:1005800080E000C08130910571F01CF4892B39F0B6
:1005900008958230910559F0039769F0089526E097
:1005A00083E392E0F8C426E080ED92E0FBCF26E002
:1005B0008DE693E0F7CF26E08AE094E0F3CF1F9238
:1005C0000F920FB60F9211240BB60F922F933F93F9
:1005D0004F935F936F937F938F939F93AF93BF934B
:1005E000EF93FF938FE89DEF909325018093240173
:1005F00034D0FF91EF91BF91AF919F918F917F91F7
:100600006F915F914F913F912F910F900BBE0F9083
:100610000FBE0F901F9018958FE89DEF90932501C6
:1006200080932401A3E7B0E08C918E7F8C93E0E26D
:10063000F1E080818C7F8083E1E2F1E08081877E40
:10064000808380818460808380818C7F80838C9193
:1006500081608C93089581E008958091270291E054
:10066000980F90932702882349F021E030E03093DF
:100670002902209328028093270208957894BFDEF0
:10068000F894809127028150F6CFCF93DF93109298
:10069000BE041092BD0461D26EDFC0910902D091F8
:1006A0000A021982188205DFB7DF81E028813981CB
:1006B000232B09F080E08093BD0478947894809196
:1006C000BD04811107C02EDFF89490E080E0DF9137
:1006D000CF91089581E028813981232B09F480E0AE
:1006E0008093BE049091BE0481E0911180E08093DC
:1006F000BD04B1DFE4CF5058BB27AA270ED02BC1D1
:100700001CD130F021D120F031F49F3F11F41EF4C0
:1007100011C10EF4E095E7FBDEC0E92F2DD180F387
:10072000BA17620773078407950718F071F49EF5EE
:100730005CC10EF4E0950B2EBA2FA02D0B01B90170
:1007400090010C01CA01A0011124FF27591B99F047
:10075000593F50F4503E68F11A16F040A22F232F53
:10076000342F4427585FF3CF469537952795A795A3
:10077000F0405395C9F77EF41F16BA0B620B730B4A
:10078000840BBAF09150A1F0FF0FBB1F661F771FBB
:10079000881FC2F70EC0BA0F621F731F841F48F470
:1007A000879577956795B795F7959E3F08F0B3CFF6
:1007B0009395880F08F09927EE0F979587950895E0
:1007C000FDD080F09F3740F491110EF40FC160E02E
:1007D00070E080E89FE3089526F01B16611D711DEF
:1007E000811D7FC099C053D008F481E00895E8943A
:1007F00009C097FB3EF490958095709561957F4F69
:100800008F4F9F4F9923A9F0F92F96E9BB27939516
:10081000F695879577956795B795F111F8CFFAF426
:10082000BB0F11F460FF1BC06F5F7F4F8F4F9F4F57
:1008300016C0882311F096E911C0772321F09EE8B5
:10084000872F762F05C0662371F096E8862F70E01B
:1008500060E02AF09A95660F771F881FDAF7880FF5
:100860009695879597F90895A9D080F09F3740F421
:1008700091110EF0BBC060E070E080E89FEB08953E
:1008800026F41B16611D711D811D2BC045C0990FDB
:100890000008550FAA0BE0E8FEEF16161706E8074A
:1008A000F907C0F012161306E407F50798F0621B6B
:1008B000730B840B950B39F40A2661F0232B242B40
:1008C000252B21F408950A2609F4A140A6958FEF5F
:1008D000811D811D089597F99F6780E870E060E0B1
:1008E0000895882371F4772321F09850872B762F71
:1008F00007C0662311F499270DC09051862B70E034
:1009000060E02AF09A95660F771F881FDAF7880F44
:100910009695879597F908959F3F31F0915020F46F
:10092000879577956795B795880F911D96958795CB
:1009300097F908959FEF80EC089500240A94161605
:10094000170618060906089500240A9412161306BD
:10095000140605060895092E0394000C11F488234B
:1009600052F0BB0F40F4BF2B11F460FF04C06F5F67
:100970007F4F8F4F9F4F089557FD9058440F551F3D
:1009800059F05F3F71F04795880F97FB991F61F011
:100990009F3F79F087950895121613061406551F88
:1009A000F2CF4695F1DF08C0161617061806991FF4
:1009B000F1CF86957105610508940895E5DFA0F0F3
:1009C000BEE7B91788F4BB279F3860F41616B11D2F
:1009D000672F782F8827985FF7CF8695779567954B
:1009E000B11D93959639C8F30895E894BB276627FF
:1009F0007727CB0197F908954ADF08F48FEF089520
:100A00000BD0A9CF9ADF28F09FDF18F0952309F0CB
:100A100062CF90CF1124EACFAFDFA0F3959FD1F33F
:100A2000950F50E0551F629FF001729FBB27F00D9C
:100A3000B11D639FAA27F00DB11DAA1F649F6627F1
:100A4000B00DA11D661F829F2227B00DA11D621F40
:100A5000739FB00DA11D621F839FA00D611D221FFA
:100A6000749F3327A00D611D231F849F600D211DDE
:100A7000822F762F6A2F11249F5750408AF0E1F081
:100A800088234AF0EE0FFF1FBB1F661F771F881FCA
:100A900091505040A9F79E3F510570F01CCFA6CF52
:100AA0005F3FECF3983EDCF3869577956795B795B5
:100AB000F795E7959F5FC1F7FE2B880F911D9695DF
:100AC000879597F908951F920F920FB60F921124F0
:100AD0002F933F938F939F93AF93BF9380912B025C
:100AE00090912C02A0912D02B0912E0230912A02F9
:100AF00023E0230F2D3758F50196A11DB11D20933A
:100B00002A0280932B0290932C02A0932D02B09383
:100B10002E0280912F0290913002A0913102B0916B
:100B200032020196A11DB11D80932F0290933002D5
:100B3000A0933102B0933202BF91AF919F918F91F8
:100B40003F912F910F900FBE0F901F90189526E8A0
:100B5000230F0296A11DB11DD2CF789484B5826077
:100B600084BD84B5816084BD85B5826085BD85B551
:100B7000816085BDEEE6F0E0808181608083E1E800
:100B8000F0E0108280818260808380818160808338
:100B9000E0E8F0E0808181608083E1EBF0E080813B
:100BA00084608083E0EBF0E0808181608083E1E914
:100BB000F0E0808182608083808181608083E0E9D1
:100BC000F0E0808181608083E1EAF0E080818260F2
:100BD0008083808181608083E0EAF0E080818160B1
:100BE0008083E1E2F1E080818260808380818160A6
:100BF0008083E0E2F1E0808181608083EAE7F0E0D9
:100C00008081846080838081826080838081816034
:100C100080838081806880831092C100089586332C
:100C200008F0865320917B00982F9870277F922B95
:100C300090937B002091080290E4299F9001112459
:100C40008770822B80937C0080917A0080648093EF
:100C50007A0080917A0086FDFCCF80917800909197
:100C6000790008958150823108F059C0E82FF0E0F2
:100C70008827E35CF94F8F4F6DC45D0661064F0610
:100C8000550659068F0664066A066E0674067806CF
:100C90007C06820686068F068A0690069406809158
:100CA00080008F77809380000895809180008F7DF1
:100CB000F9CF80918000877FF5CF84B58F7784BD91
:100CC000089584B58F7DFBCF8091B0008F7780939E
:100CD000B00008958091B0008F7DF9CF8091900091
:100CE0008F77809390000895809190008F7DF9CF49
:100CF00080919000877FF5CF8091A0008F778093BF
:100D0000A00008958091A0008F7DF9CF8091A00070
:100D1000877FF5CF809120018F7780932001089500
:100D2000809120018F7DF9CF80912001877FF5CFC1
:100D3000CF93DF9390E0FC01E65DFE4F2491805954
:100D40009E4FFC0184918823C9F090E0880F991F81
:100D5000FC01E053FE4FA591B491FC01EA54FE4F13
:100D6000C591D49161110DC09FB7F8948C912095D5
:100D700082238C938881282328839FBFDF91CF9182
:100D80000895623051F49FB7F8943C91822F80957A
:100D900083238C93E8812E2BEFCF8FB7F894EC91BF
:100DA0002E2B2C938FBFEACF1F93CF93DF93282F47
:100DB00030E0F901EC51FF4F8491F901E65DFE4FFF
:100DC000D491F901E059FE4FC491CC23A1F0162F24
:100DD000811148DFEC2FF0E0EE0FFF1FEA54FE4FC9
:100DE000A591B4918FB7F894EC91111108C0D095EA
:100DF000DE23DC938FBFDF91CF911F910895DE2B0F
:100E0000F8CFFC01918D228D892F90E0805C9F4F5F
:100E1000821B91098F7399270895FC01918D828D12
:100E2000981731F0828DE80FF11D858D90E00895BF
:100E30008FEF9FEF0895FC01918D828D981761F0DF
:100E4000A28DAE0FBF2FB11D5D968C91928D9F5FCD
:100E50009F73928F90E008958FEF9FEF0895FC01AC
:100E6000538D448D252F30E0842F90E0821B930B0F
:100E7000541710F0CF96089501970895FC01A48DA2
:100E8000A80FB92FB11DA35ABF4F2C91848D90E0AC
:100E900001968F739927848FA689B7892C93A0898F
:100EA000B1898C91837080648C93938D848D981319
:100EB00006C00288F389E02D80818F7D80830895AC
:100EC000CF93DF93EC01888D8823B1F0AA89BB8989
:100ED000E889F9898C9185FD03C0808186FD0CC06D
:100EE0000FB607FCF7CF8C9185FFF2CF808185FF8D
:100EF000EDCFCE01C3DFEACFDF91CF910895EF921E
:100F0000FF920F931F93CF93DF93EC0181E0888FC3
:100F10009B8D8C8D98131AC0E889F989808185FF93
:100F200015C09FB7F894EE89FF896083E889F98935
:100F300080818370806480839FBF81E090E0DF9137
:100F4000CF911F910F91FF90EF900895F62E0B8D8A
:100F500010E00F5F1F4F0F731127E02E8C8D8E1145
:100F60000BC00FB607FCFACFE889F989808185FFAD
:100F7000F5CFCE0183DFF2CFEB8DEC0FFD2FF11D0E
:100F8000E35AFF4FF0829FB7F8940B8FEA89FB89F1
:100F900080818062D0CFCF92DF92EF92FF921F9339
:100FA000CF93DF93EC016A017B01122FE889F98965
:100FB00082E08083C11481EED806E104F10499F047
:100FC00060E079E08DE390E0A7019601A1D2215085
:100FD00031094109510956954795379527952115AE
:100FE00080E1380790F0E889F989108260E874E8B8
:100FF0008EE190E0A70196018BD221503109410981
:1010000051095695479537952795EC85FD85308391
:10101000EE85FF852083188EEC89FD891083EA898F
:10102000FB89808180618083EA89FB898081886077
:101030008083EA89FB89808180688083EA89FB89D3
:1010400080818F7D8083DF91CF911F91FF90EF9002
:10105000DF90CF9008951F920F920FB60F92112438
:101060000BB60F922F938F939F93EF93FF93E09183
:101070004302F09144028081E0914902F0914A02DA
:1010800082FD1DC0908180914C028F5F8F732091F3
:101090004D02821741F0E0914C02F0E0ED5CFD4F13
:1010A000958F80934C02FF91EF919F918F912F919B
:1010B0000F900BBE0F900FBE0F901F901895808160
:1010C000F2CF1F920F920FB60F9211240BB60F9210
:1010D0002F933F934F935F936F937F938F939F9340
:1010E000AF93BF93EF93FF9383E392E0C7DEFF914B
:1010F000EF91BF91AF919F918F917F916F915F9190
:101100004F913F912F910F900BBE0F900FBE0F90FC
:101110001F901895E3E3F2E01382128288EE93E0C9
:10112000A0E0B0E084839583A683B7838FE092E04C
:101130009183808385EC90E09587848784EC90E0B0
:101140009787868780EC90E0918B808B81EC90E094
:10115000938B828B82EC90E0958B848B86EC90E075
:10116000978B868B118E128E138E148E08951F927C
:101170000F920FB60F9211240BB60F922F938F93ED
:101180009F93EF93FF93E091E002F091E102808161
:10119000E091E602F091E70282FD1DC0908180910E
:1011A000E9028F5F8F732091EA02821741F0E0918C
:1011B000E902F0E0E053FD4F958F8093E902FF9143
:1011C000EF919F918F912F910F900BBE0F900FBEBB
:1011D0000F901F9018958081F2CF1F920F920FB63B
:1011E0000F9211240BB60F922F933F934F935F935F
:1011F0006F937F938F939F93AF93BF93EF93FF93DF
:1012000080ED92E03BDEFF91EF91BF91AF919F9116
:101210008F917F916F915F914F913F912F910F909F
:101220000BBE0F900FBE0F901F901895E0EDF2E0EF
:101230001382128288EE93E0A0E0B0E0848395836D
:10124000A683B7838FE092E0918380838DEC90E05A
:10125000958784878CEC90E09787868788EC90E070
:10126000918B808B89EC90E0938B828B8AEC90E061
:10127000958B848B8EEC90E0978B868B118E128EE3
:10128000138E148E08951F920F920FB60F92112491
:101290000BB60F922F938F939F93EF93FF93E09151
:1012A0007D03F0917E038081E0918303F0918403BC
:1012B00082FD1DC09081809186038F5F8F73209186
:1012C0008703821741F0E0918603F0E0E359FC4F79
:1012D000958F80938603FF91EF919F918F912F912E
:1012E0000F900BBE0F900FBE0F901F90189580812E
:1012F000F2CF1F920F920FB60F9211240BB60F92DE
:101300002F933F934F935F936F937F938F939F930D
:10131000AF93BF93EF93FF938DE693E0AFDDFF9123
:10132000EF91BF91AF919F918F917F916F915F915D
:101330004F913F912F910F900BBE0F900FBE0F90CA
:101340001F901895EDE6F3E01382128288EE93E089
:10135000A0E0B0E084839583A683B7838FE092E01A
:101360009183808385ED90E09587848784ED90E07C
:101370009787868780ED90E0918B808B81ED90E060
:10138000938B828B82ED90E0958B848B86ED90E041
:10139000978B868B118E128E138E148E08951F924A
:1013A0000F920FB60F9211240BB60F922F938F93BB
:1013B0009F93EF93FF93E0911A04F0911B048081B7
:1013C000E0912004F091210482FD1DC09081809164
:1013D00023048F5F8F7320912404821741F0E091E2
:1013E0002304F0E0E65FFB4F958F80932304FF9189
:1013F000EF919F918F912F910F900BBE0F900FBE89
:101400000F901F9018958081F2CF1F920F920FB608
:101410000F9211240BB60F922F933F934F935F932C
:101420006F937F938F939F93AF93BF93EF93FF93AC
:101430008AE094E023DDFF91EF91BF91AF919F91FE
:101440008F917F916F915F914F913F912F910F906D
:101450000BBE0F900FBE0F901F901895EAE0F4E0BE
:101460001382128288EE93E0A0E0B0E0848395833B
:10147000A683B7838FE092E09183808385E391E038
:101480009587848784E391E09787868780E391E05E
:10149000918B808B81E391E0938B828B82E391E04F
:1014A000958B848B86E391E0978B868B118E128EC1
:1014B000138E148E0895AF92BF92CF92DF92EF9267
:1014C000FF920F931F93CF93DF936C017B018B01EE
:1014D000040F151FEB015E01AE18BF08C017D1073E
:1014E00059F06991D601ED91FC910190F081E02DC8
:1014F000C6011995892B79F7C501DF91CF911F910D
:101500000F91FF90EF90DF90CF90BF90AF90089534
:10151000A1E21A2EAA1BBB1BFD010DC0AA1FBB1FF7
:10152000EE1FFF1FA217B307E407F50720F0A21B69
:10153000B30BE40BF50B661F771F881F991F1A94D6
:1015400069F760957095809590959B01AC01BD0100
:10155000CF010895EE0FFF1F881F8BBF0790F691F4
:08156000E02D1994F894FFCF6F
:101568000AD7233C0000204001A704000000007FA8
:0E157800075B0A2F07600701071B070D07001E
:00000001FF
